{
  "_format": "hh-sol-artifact-1",
  "contractName": "BookMark",
  "sourceName": "contracts/BookMark.sol",
  "abi": [
    {
      "inputs": [],
      "stateMutability": "nonpayable",
      "type": "constructor"
    },
    {
      "anonymous": false,
      "inputs": [
        {
          "indexed": false,
          "internalType": "uint256",
          "name": "id",
          "type": "uint256"
        },
        {
          "indexed": false,
          "internalType": "string",
          "name": "hash",
          "type": "string"
        },
        {
          "indexed": false,
          "internalType": "string",
          "name": "description",
          "type": "string"
        },
        {
          "indexed": false,
          "internalType": "string",
          "name": "preview",
          "type": "string"
        },
        {
          "indexed": false,
          "internalType": "uint256",
          "name": "tipAmount",
          "type": "uint256"
        },
        {
          "indexed": false,
          "internalType": "address payable",
          "name": "author",
          "type": "address"
        }
      ],
      "name": "PostCreated",
      "type": "event"
    },
    {
      "anonymous": false,
      "inputs": [
        {
          "indexed": false,
          "internalType": "uint256",
          "name": "id",
          "type": "uint256"
        },
        {
          "indexed": false,
          "internalType": "string",
          "name": "hash",
          "type": "string"
        },
        {
          "indexed": false,
          "internalType": "string",
          "name": "description",
          "type": "string"
        },
        {
          "indexed": false,
          "internalType": "string",
          "name": "preview",
          "type": "string"
        },
        {
          "indexed": false,
          "internalType": "uint256",
          "name": "tipAmount",
          "type": "uint256"
        },
        {
          "indexed": false,
          "internalType": "address payable",
          "name": "author",
          "type": "address"
        }
      ],
      "name": "PostTipped",
      "type": "event"
    },
    {
      "inputs": [],
      "name": "getAllPosts",
      "outputs": [
        {
          "components": [
            {
              "internalType": "uint256",
              "name": "id",
              "type": "uint256"
            },
            {
              "internalType": "string",
              "name": "hash",
              "type": "string"
            },
            {
              "internalType": "string",
              "name": "description",
              "type": "string"
            },
            {
              "internalType": "string",
              "name": "preview",
              "type": "string"
            },
            {
              "internalType": "uint256",
              "name": "tipAmount",
              "type": "uint256"
            },
            {
              "internalType": "address payable",
              "name": "author",
              "type": "address"
            }
          ],
          "internalType": "struct BookMark.Post[]",
          "name": "_posts",
          "type": "tuple[]"
        }
      ],
      "stateMutability": "view",
      "type": "function"
    },
    {
      "inputs": [],
      "name": "name",
      "outputs": [
        {
          "internalType": "string",
          "name": "",
          "type": "string"
        }
      ],
      "stateMutability": "view",
      "type": "function"
    },
    {
      "inputs": [],
      "name": "postCount",
      "outputs": [
        {
          "internalType": "uint256",
          "name": "",
          "type": "uint256"
        }
      ],
      "stateMutability": "view",
      "type": "function"
    },
    {
      "inputs": [
        {
          "internalType": "uint256",
          "name": "",
          "type": "uint256"
        }
      ],
      "name": "posts",
      "outputs": [
        {
          "internalType": "uint256",
          "name": "id",
          "type": "uint256"
        },
        {
          "internalType": "string",
          "name": "hash",
          "type": "string"
        },
        {
          "internalType": "string",
          "name": "description",
          "type": "string"
        },
        {
          "internalType": "string",
          "name": "preview",
          "type": "string"
        },
        {
          "internalType": "uint256",
          "name": "tipAmount",
          "type": "uint256"
        },
        {
          "internalType": "address payable",
          "name": "author",
          "type": "address"
        }
      ],
      "stateMutability": "view",
      "type": "function"
    },
    {
      "inputs": [
        {
          "internalType": "uint256",
          "name": "_id",
          "type": "uint256"
        }
      ],
      "name": "tipImageOwner",
      "outputs": [],
      "stateMutability": "payable",
      "type": "function"
    },
    {
      "inputs": [
        {
          "internalType": "string",
          "name": "_bookMarkHash",
          "type": "string"
        },
        {
          "internalType": "string",
          "name": "_description",
          "type": "string"
        },
        {
          "internalType": "string",
          "name": "_preview",
          "type": "string"
        }
      ],
      "name": "uploadPost",
      "outputs": [],
      "stateMutability": "nonpayable",
      "type": "function"
    }
  ],
  "bytecode": "0x608060405260006001553480156200001657600080fd5b506040518060400160405280600881526020017f426f6f6b4d61726b00000000000000000000000000000000000000000000000081525060009080519060200190620000649291906200006b565b5062000180565b82805462000079906200011b565b90600052602060002090601f0160209004810192826200009d5760008555620000e9565b82601f10620000b857805160ff1916838001178555620000e9565b82800160010185558215620000e9579182015b82811115620000e8578251825591602001919060010190620000cb565b5b509050620000f89190620000fc565b5090565b5b8082111562000117576000816000905550600101620000fd565b5090565b600060028204905060018216806200013457607f821691505b602082108114156200014b576200014a62000151565b5b50919050565b7f4e487b7100000000000000000000000000000000000000000000000000000000600052602260045260246000fd5b61182080620001906000396000f3fe6080604052600436106100555760003560e01c806306fdde031461005a5780630b1e7f831461008557806317906c2e146100c757806330561100146100f25780636e4d2b751461011d5780638567ade814610146575b600080fd5b34801561006657600080fd5b5061006f610162565b60405161007c919061129a565b60405180910390f35b34801561009157600080fd5b506100ac60048036038101906100a79190610fe6565b6101f0565b6040516100be969594939291906113cd565b60405180910390f35b3480156100d357600080fd5b506100dc6103e4565b6040516100e9919061133c565b60405180910390f35b3480156100fe57600080fd5b506101076103ea565b6040516101149190611278565b60405180910390f35b34801561012957600080fd5b50610144600480360381019061013f9190610f4f565b61071b565b005b610160600480360381019061015b9190610fe6565b6109c8565b005b6000805461016f906115e5565b80601f016020809104026020016040519081016040528092919081815260200182805461019b906115e5565b80156101e85780601f106101bd576101008083540402835291602001916101e8565b820191906000526020600020905b8154815290600101906020018083116101cb57829003601f168201915b505050505081565b6002602052806000526040600020600091509050806000015490806001018054610219906115e5565b80601f0160208091040260200160405190810160405280929190818152602001828054610245906115e5565b80156102925780601f1061026757610100808354040283529160200191610292565b820191906000526020600020905b81548152906001019060200180831161027557829003601f168201915b5050505050908060020180546102a7906115e5565b80601f01602080910402602001604051908101604052809291908181526020018280546102d3906115e5565b80156103205780601f106102f557610100808354040283529160200191610320565b820191906000526020600020905b81548152906001019060200180831161030357829003601f168201915b505050505090806003018054610335906115e5565b80601f0160208091040260200160405190810160405280929190818152602001828054610361906115e5565b80156103ae5780601f10610383576101008083540402835291602001916103ae565b820191906000526020600020905b81548152906001019060200180831161039157829003601f168201915b5050505050908060040154908060050160009054906101000a900473ffffffffffffffffffffffffffffffffffffffff16905086565b60015481565b606060015467ffffffffffffffff81111561042e577f4e487b7100000000000000000000000000000000000000000000000000000000600052604160045260246000fd5b60405190808252806020026020018201604052801561046757816020015b610454610de3565b81526020019060019003908161044c5790505b50905060005b8151811015610717576002600060018361048791906114ff565b81526020019081526020016000206040518060c0016040529081600082015481526020016001820180546104ba906115e5565b80601f01602080910402602001604051908101604052809291908181526020018280546104e6906115e5565b80156105335780601f1061050857610100808354040283529160200191610533565b820191906000526020600020905b81548152906001019060200180831161051657829003601f168201915b5050505050815260200160028201805461054c906115e5565b80601f0160208091040260200160405190810160405280929190818152602001828054610578906115e5565b80156105c55780601f1061059a576101008083540402835291602001916105c5565b820191906000526020600020905b8154815290600101906020018083116105a857829003601f168201915b505050505081526020016003820180546105de906115e5565b80601f016020809104026020016040519081016040528092919081815260200182805461060a906115e5565b80156106575780601f1061062c57610100808354040283529160200191610657565b820191906000526020600020905b81548152906001019060200180831161063a57829003601f168201915b50505050508152602001600482015481526020016005820160009054906101000a900473ffffffffffffffffffffffffffffffffffffffff1673ffffffffffffffffffffffffffffffffffffffff1673ffffffffffffffffffffffffffffffffffffffff16815250508282815181106106f9577f4e487b7100000000000000000000000000000000000000000000000000000000600052603260045260246000fd5b6020026020010181905250808061070f90611648565b91505061046d565b5090565b600083511161075f576040517f08c379a0000000000000000000000000000000000000000000000000000000008152600401610756906112fc565b60405180910390fd5b60008251116107a3576040517f08c379a000000000000000000000000000000000000000000000000000000000815260040161079a906112bc565b60405180910390fd5b60008151116107e7576040517f08c379a00000000000000000000000000000000000000000000000000000000081526004016107de906112bc565b60405180910390fd5b600073ffffffffffffffffffffffffffffffffffffffff163373ffffffffffffffffffffffffffffffffffffffff161415610857576040517f08c379a000000000000000000000000000000000000000000000000000000000815260040161084e906112dc565b60405180910390fd5b6001600081548092919061086a90611648565b91905055506040518060c001604052806001548152602001848152602001838152602001828152602001600081526020013373ffffffffffffffffffffffffffffffffffffffff168152506002600060015481526020019081526020016000206000820151816000015560208201518160010190805190602001906108f0929190610e2f565b50604082015181600201908051906020019061090d929190610e2f565b50606082015181600301908051906020019061092a929190610e2f565b506080820151816004015560a08201518160050160006101000a81548173ffffffffffffffffffffffffffffffffffffffff021916908373ffffffffffffffffffffffffffffffffffffffff1602179055509050507f6dbf8011652ab6c578094a9a71e68b3aaa229e9556ac1da8264c9f191aac23956001548484846000336040516109bb96959493929190611357565b60405180910390a1505050565b6000811180156109da57506001548111155b610a19576040517f08c379a0000000000000000000000000000000000000000000000000000000008152600401610a109061131c565b60405180910390fd5b6000600260008381526020019081526020016000206040518060c001604052908160008201548152602001600182018054610a53906115e5565b80601f0160208091040260200160405190810160405280929190818152602001828054610a7f906115e5565b8015610acc5780601f10610aa157610100808354040283529160200191610acc565b820191906000526020600020905b815481529060010190602001808311610aaf57829003601f168201915b50505050508152602001600282018054610ae5906115e5565b80601f0160208091040260200160405190810160405280929190818152602001828054610b11906115e5565b8015610b5e5780601f10610b3357610100808354040283529160200191610b5e565b820191906000526020600020905b815481529060010190602001808311610b4157829003601f168201915b50505050508152602001600382018054610b77906115e5565b80601f0160208091040260200160405190810160405280929190818152602001828054610ba3906115e5565b8015610bf05780601f10610bc557610100808354040283529160200191610bf0565b820191906000526020600020905b815481529060010190602001808311610bd357829003601f168201915b50505050508152602001600482015481526020016005820160009054906101000a900473ffffffffffffffffffffffffffffffffffffffff1673ffffffffffffffffffffffffffffffffffffffff1673ffffffffffffffffffffffffffffffffffffffff1681525050905060008160a0015190508073ffffffffffffffffffffffffffffffffffffffff166108fc349081150290604051600060405180830381858888f19350505050158015610caa573d6000803e3d6000fd5b50348260800151610cbb91906114ff565b8260800181815250508160026000858152602001908152602001600020600082015181600001556020820151816001019080519060200190610cfe929190610e2f565b506040820151816002019080519060200190610d1b929190610e2f565b506060820151816003019080519060200190610d38929190610e2f565b506080820151816004015560a08201518160050160006101000a81548173ffffffffffffffffffffffffffffffffffffffff021916908373ffffffffffffffffffffffffffffffffffffffff1602179055509050507fe95f1d6bffe23e6139931bcdea8097548a1f20522ae5801a84d177ee7981855083836020015184604001518560600151866080015186604051610dd6969594939291906113cd565b60405180910390a1505050565b6040518060c001604052806000815260200160608152602001606081526020016060815260200160008152602001600073ffffffffffffffffffffffffffffffffffffffff1681525090565b828054610e3b906115e5565b90600052602060002090601f016020900481019282610e5d5760008555610ea4565b82601f10610e7657805160ff1916838001178555610ea4565b82800160010185558215610ea4579182015b82811115610ea3578251825591602001919060010190610e88565b5b509050610eb19190610eb5565b5090565b5b80821115610ece576000816000905550600101610eb6565b5090565b6000610ee5610ee084611468565b611443565b905082815260208101848484011115610efd57600080fd5b610f088482856115a3565b509392505050565b600082601f830112610f2157600080fd5b8135610f31848260208601610ed2565b91505092915050565b600081359050610f49816117d3565b92915050565b600080600060608486031215610f6457600080fd5b600084013567ffffffffffffffff811115610f7e57600080fd5b610f8a86828701610f10565b935050602084013567ffffffffffffffff811115610fa757600080fd5b610fb386828701610f10565b925050604084013567ffffffffffffffff811115610fd057600080fd5b610fdc86828701610f10565b9150509250925092565b600060208284031215610ff857600080fd5b600061100684828501610f3a565b91505092915050565b600061101b83836111c3565b905092915050565b61102c81611555565b82525050565b61103b81611555565b82525050565b600061104c826114a9565b61105681856114cc565b93508360208202850161106885611499565b8060005b858110156110a45784840389528151611085858261100f565b9450611090836114bf565b925060208a0199505060018101905061106c565b50829750879550505050505092915050565b6110bf81611591565b82525050565b60006110d0826114b4565b6110da81856114dd565b93506110ea8185602086016115b2565b6110f38161171e565b840191505092915050565b6000611109826114b4565b61111381856114ee565b93506111238185602086016115b2565b61112c8161171e565b840191505092915050565b6000611144600f836114ee565b915061114f8261172f565b602082019050919050565b60006111676020836114ee565b915061117282611758565b602082019050919050565b600061118a601a836114ee565b915061119582611781565b602082019050919050565b60006111ad6012836114ee565b91506111b8826117aa565b602082019050919050565b600060c0830160008301516111db600086018261125a565b50602083015184820360208601526111f382826110c5565b9150506040830151848203604086015261120d82826110c5565b9150506060830151848203606086015261122782826110c5565b915050608083015161123c608086018261125a565b5060a083015161124f60a0860182611023565b508091505092915050565b61126381611587565b82525050565b61127281611587565b82525050565b600060208201905081810360008301526112928184611041565b905092915050565b600060208201905081810360008301526112b481846110fe565b905092915050565b600060208201905081810360008301526112d581611137565b9050919050565b600060208201905081810360008301526112f58161115a565b9050919050565b600060208201905081810360008301526113158161117d565b9050919050565b60006020820190508181036000830152611335816111a0565b9050919050565b60006020820190506113516000830184611269565b92915050565b600060c08201905061136c6000830189611269565b818103602083015261137e81886110fe565b9050818103604083015261139281876110fe565b905081810360608301526113a681866110fe565b90506113b560808301856110b6565b6113c260a0830184611032565b979650505050505050565b600060c0820190506113e26000830189611269565b81810360208301526113f481886110fe565b9050818103604083015261140881876110fe565b9050818103606083015261141c81866110fe565b905061142b6080830185611269565b61143860a0830184611032565b979650505050505050565b600061144d61145e565b90506114598282611617565b919050565b6000604051905090565b600067ffffffffffffffff821115611483576114826116ef565b5b61148c8261171e565b9050602081019050919050565b6000819050602082019050919050565b600081519050919050565b600081519050919050565b6000602082019050919050565b600082825260208201905092915050565b600082825260208201905092915050565b600082825260208201905092915050565b600061150a82611587565b915061151583611587565b9250827fffffffffffffffffffffffffffffffffffffffffffffffffffffffffffffffff0382111561154a57611549611691565b5b828201905092915050565b600061156082611567565b9050919050565b600073ffffffffffffffffffffffffffffffffffffffff82169050919050565b6000819050919050565b600061159c82611587565b9050919050565b82818337600083830152505050565b60005b838110156115d05780820151818401526020810190506115b5565b838111156115df576000848401525b50505050565b600060028204905060018216806115fd57607f821691505b60208210811415611611576116106116c0565b5b50919050565b6116208261171e565b810181811067ffffffffffffffff8211171561163f5761163e6116ef565b5b80604052505050565b600061165382611587565b91507fffffffffffffffffffffffffffffffffffffffffffffffffffffffffffffffff82141561168657611685611691565b5b600182019050919050565b7f4e487b7100000000000000000000000000000000000000000000000000000000600052601160045260246000fd5b7f4e487b7100000000000000000000000000000000000000000000000000000000600052602260045260246000fd5b7f4e487b7100000000000000000000000000000000000000000000000000000000600052604160045260246000fd5b6000601f19601f8301169050919050565b7f63616e6e6f7420626520656d7074790000000000000000000000000000000000600082015250565b7f55706c6f6164657220616464726573732063616e6e6f7420626520656d707479600082015250565b7f496d61676520686173682063616e6e6f7420626520656d707479000000000000600082015250565b7f504f535420696420697320696e76616c69640000000000000000000000000000600082015250565b6117dc81611587565b81146117e757600080fd5b5056fea264697066735822122088f718fec9c51313a7e5239be2535bf06a930d906d24c4a22aa79bd95447220664736f6c63430008020033",
  "linkReferences": {},
  "deployedLinkReferences": {}
}