{
  "_format": "hh-sol-artifact-1",
  "contractName": "BookMark",
  "sourceName": "contracts/BookMark.sol",
  "abi": [
    {
      "inputs": [],
      "stateMutability": "nonpayable",
      "type": "constructor"
    },
    {
      "anonymous": false,
      "inputs": [
        {
          "indexed": false,
          "internalType": "uint256",
          "name": "id",
          "type": "uint256"
        },
        {
          "indexed": false,
          "internalType": "string",
          "name": "hash",
          "type": "string"
        },
        {
          "indexed": false,
          "internalType": "string",
          "name": "description",
          "type": "string"
        },
        {
          "indexed": false,
          "internalType": "string",
          "name": "preview",
          "type": "string"
        },
        {
          "indexed": false,
          "internalType": "uint256",
          "name": "tipAmount",
          "type": "uint256"
        },
        {
          "indexed": false,
          "internalType": "uint256",
          "name": "downloadAmount",
          "type": "uint256"
        },
        {
          "indexed": false,
          "internalType": "address payable",
          "name": "author",
          "type": "address"
        }
      ],
      "name": "PostCreated",
      "type": "event"
    },
    {
      "anonymous": false,
      "inputs": [
        {
          "indexed": false,
          "internalType": "uint256",
          "name": "id",
          "type": "uint256"
        },
        {
          "indexed": false,
          "internalType": "string",
          "name": "hash",
          "type": "string"
        },
        {
          "indexed": false,
          "internalType": "string",
          "name": "description",
          "type": "string"
        },
        {
          "indexed": false,
          "internalType": "string",
          "name": "preview",
          "type": "string"
        },
        {
          "indexed": false,
          "internalType": "uint256",
          "name": "tipAmount",
          "type": "uint256"
        },
        {
          "indexed": false,
          "internalType": "uint256",
          "name": "downloadAmount",
          "type": "uint256"
        },
        {
          "indexed": false,
          "internalType": "address payable",
          "name": "author",
          "type": "address"
        }
      ],
      "name": "PostDownloaded",
      "type": "event"
    },
    {
      "anonymous": false,
      "inputs": [
        {
          "indexed": false,
          "internalType": "uint256",
          "name": "id",
          "type": "uint256"
        },
        {
          "indexed": false,
          "internalType": "string",
          "name": "hash",
          "type": "string"
        },
        {
          "indexed": false,
          "internalType": "string",
          "name": "description",
          "type": "string"
        },
        {
          "indexed": false,
          "internalType": "string",
          "name": "preview",
          "type": "string"
        },
        {
          "indexed": false,
          "internalType": "uint256",
          "name": "tipAmount",
          "type": "uint256"
        },
        {
          "indexed": false,
          "internalType": "uint256",
          "name": "downloadAmount",
          "type": "uint256"
        },
        {
          "indexed": false,
          "internalType": "address payable",
          "name": "author",
          "type": "address"
        }
      ],
      "name": "PostTipped",
      "type": "event"
    },
    {
      "inputs": [],
      "name": "getAllPosts",
      "outputs": [
        {
          "components": [
            {
              "internalType": "uint256",
              "name": "id",
              "type": "uint256"
            },
            {
              "internalType": "string",
              "name": "hash",
              "type": "string"
            },
            {
              "internalType": "string",
              "name": "description",
              "type": "string"
            },
            {
              "internalType": "string",
              "name": "preview",
              "type": "string"
            },
            {
              "internalType": "uint256",
              "name": "tipAmount",
              "type": "uint256"
            },
            {
              "internalType": "uint256",
              "name": "downloadAmount",
              "type": "uint256"
            },
            {
              "internalType": "address payable",
              "name": "author",
              "type": "address"
            }
          ],
          "internalType": "struct BookMark.Post[]",
          "name": "_posts",
          "type": "tuple[]"
        }
      ],
      "stateMutability": "view",
      "type": "function"
    },
    {
      "inputs": [],
      "name": "name",
      "outputs": [
        {
          "internalType": "string",
          "name": "",
          "type": "string"
        }
      ],
      "stateMutability": "view",
      "type": "function"
    },
    {
      "inputs": [],
      "name": "postCount",
      "outputs": [
        {
          "internalType": "uint256",
          "name": "",
          "type": "uint256"
        }
      ],
      "stateMutability": "view",
      "type": "function"
    },
    {
      "inputs": [
        {
          "internalType": "uint256",
          "name": "",
          "type": "uint256"
        }
      ],
      "name": "posts",
      "outputs": [
        {
          "internalType": "uint256",
          "name": "id",
          "type": "uint256"
        },
        {
          "internalType": "string",
          "name": "hash",
          "type": "string"
        },
        {
          "internalType": "string",
          "name": "description",
          "type": "string"
        },
        {
          "internalType": "string",
          "name": "preview",
          "type": "string"
        },
        {
          "internalType": "uint256",
          "name": "tipAmount",
          "type": "uint256"
        },
        {
          "internalType": "uint256",
          "name": "downloadAmount",
          "type": "uint256"
        },
        {
          "internalType": "address payable",
          "name": "author",
          "type": "address"
        }
      ],
      "stateMutability": "view",
      "type": "function"
    },
    {
      "inputs": [
        {
          "internalType": "uint256",
          "name": "_id",
          "type": "uint256"
        }
      ],
      "name": "tipPostOwner",
      "outputs": [],
      "stateMutability": "payable",
      "type": "function"
    },
    {
      "inputs": [
        {
          "internalType": "uint256",
          "name": "_id",
          "type": "uint256"
        }
      ],
      "name": "updateDownLoadAmount",
      "outputs": [],
      "stateMutability": "nonpayable",
      "type": "function"
    },
    {
      "inputs": [
        {
          "internalType": "string",
          "name": "_bookMarkHash",
          "type": "string"
        },
        {
          "internalType": "string",
          "name": "_description",
          "type": "string"
        },
        {
          "internalType": "string",
          "name": "_preview",
          "type": "string"
        }
      ],
      "name": "uploadPost",
      "outputs": [],
      "stateMutability": "nonpayable",
      "type": "function"
    }
  ],
  "bytecode": "0x608060405260006001553480156200001657600080fd5b506040518060400160405280600881526020017f426f6f6b4d61726b00000000000000000000000000000000000000000000000081525060009080519060200190620000649291906200006b565b5062000180565b82805462000079906200011b565b90600052602060002090601f0160209004810192826200009d5760008555620000e9565b82601f10620000b857805160ff1916838001178555620000e9565b82800160010185558215620000e9579182015b82811115620000e8578251825591602001919060010190620000cb565b5b509050620000f89190620000fc565b5090565b5b8082111562000117576000816000905550600101620000fd565b5090565b600060028204905060018216806200013457607f821691505b602082108114156200014b576200014a62000151565b5b50919050565b7f4e487b7100000000000000000000000000000000000000000000000000000000600052602260045260246000fd5b61214380620001906000396000f3fe6080604052600436106100705760003560e01c806317906c2e1161004e57806317906c2e1461010c57806330561100146101375780636e4d2b7514610162578063d6313c061461018b57610070565b806306fdde03146100755780630b1e7f83146100a05780630bf3b8be146100e3575b600080fd5b34801561008157600080fd5b5061008a6101a7565b6040516100979190611a07565b60405180910390f35b3480156100ac57600080fd5b506100c760048036038101906100c29190611657565b610235565b6040516100da9796959493929190611ba8565b60405180910390f35b3480156100ef57600080fd5b5061010a60048036038101906101059190611657565b61042f565b005b34801561011857600080fd5b50610121610972565b60405161012e9190611b09565b60405180910390f35b34801561014357600080fd5b5061014c610978565b60405161015991906119e5565b60405180910390f35b34801561016e57600080fd5b50610189600480360381019061018491906115c0565b610cb3565b005b6101a560048036038101906101a09190611657565b610f73565b005b600080546101b490611e67565b80601f01602080910402602001604051908101604052809291908181526020018280546101e090611e67565b801561022d5780601f106102025761010080835404028352916020019161022d565b820191906000526020600020905b81548152906001019060200180831161021057829003601f168201915b505050505081565b600260205280600052604060002060009150905080600001549080600101805461025e90611e67565b80601f016020809104026020016040519081016040528092919081815260200182805461028a90611e67565b80156102d75780601f106102ac576101008083540402835291602001916102d7565b820191906000526020600020905b8154815290600101906020018083116102ba57829003601f168201915b5050505050908060020180546102ec90611e67565b80601f016020809104026020016040519081016040528092919081815260200182805461031890611e67565b80156103655780601f1061033a57610100808354040283529160200191610365565b820191906000526020600020905b81548152906001019060200180831161034857829003601f168201915b50505050509080600301805461037a90611e67565b80601f01602080910402602001604051908101604052809291908181526020018280546103a690611e67565b80156103f35780601f106103c8576101008083540402835291602001916103f3565b820191906000526020600020905b8154815290600101906020018083116103d657829003601f168201915b5050505050908060040154908060050154908060060160009054906101000a900473ffffffffffffffffffffffffffffffffffffffff16905087565b60008111610472576040517f08c379a000000000000000000000000000000000000000000000000000000000815260040161046990611a29565b60405180910390fd5b600073ffffffffffffffffffffffffffffffffffffffff163373ffffffffffffffffffffffffffffffffffffffff1614156104e2576040517f08c379a00000000000000000000000000000000000000000000000000000000081526004016104d990611a69565b60405180910390fd5b3373ffffffffffffffffffffffffffffffffffffffff166002600083815260200190815260200160002060060160009054906101000a900473ffffffffffffffffffffffffffffffffffffffff1673ffffffffffffffffffffffffffffffffffffffff161415610587576040517f08c379a000000000000000000000000000000000000000000000000000000000815260040161057e90611a89565b60405180910390fd5b6000600260008381526020019081526020016000206040518060e0016040529081600082015481526020016001820180546105c190611e67565b80601f01602080910402602001604051908101604052809291908181526020018280546105ed90611e67565b801561063a5780601f1061060f5761010080835404028352916020019161063a565b820191906000526020600020905b81548152906001019060200180831161061d57829003601f168201915b5050505050815260200160028201805461065390611e67565b80601f016020809104026020016040519081016040528092919081815260200182805461067f90611e67565b80156106cc5780601f106106a1576101008083540402835291602001916106cc565b820191906000526020600020905b8154815290600101906020018083116106af57829003601f168201915b505050505081526020016003820180546106e590611e67565b80601f016020809104026020016040519081016040528092919081815260200182805461071190611e67565b801561075e5780601f106107335761010080835404028352916020019161075e565b820191906000526020600020905b81548152906001019060200180831161074157829003601f168201915b5050505050815260200160048201548152602001600582015481526020016006820160009054906101000a900473ffffffffffffffffffffffffffffffffffffffff1673ffffffffffffffffffffffffffffffffffffffff1673ffffffffffffffffffffffffffffffffffffffff1681525050905060018160a001516107e49190611d81565b8160a0018181525050806002600084815260200190815260200160002060008201518160000155602082015181600101908051906020019061082792919061144d565b50604082015181600201908051906020019061084492919061144d565b50606082015181600301908051906020019061086192919061144d565b506080820151816004015560a0820151816005015560c08201518160060160006101000a81548173ffffffffffffffffffffffffffffffffffffffff021916908373ffffffffffffffffffffffffffffffffffffffff1602179055509050507fc9917613572636210f34a58c5abf295836c9d30fa5c2fc3864ff72c8f4f7497b8260026000858152602001908152602001600020600101600260008681526020019081526020016000206002016002600087815260200190815260200160002060030160026000888152602001908152602001600020600401546002600089815260200190815260200160002060050154336040516109669796959493929190611c2c565b60405180910390a15050565b60015481565b606060015467ffffffffffffffff8111156109bc577f4e487b7100000000000000000000000000000000000000000000000000000000600052604160045260246000fd5b6040519080825280602002602001820160405280156109f557816020015b6109e26114d3565b8152602001906001900390816109da5790505b50905060005b8151811015610caf5760026000600183610a159190611d81565b81526020019081526020016000206040518060e001604052908160008201548152602001600182018054610a4890611e67565b80601f0160208091040260200160405190810160405280929190818152602001828054610a7490611e67565b8015610ac15780601f10610a9657610100808354040283529160200191610ac1565b820191906000526020600020905b815481529060010190602001808311610aa457829003601f168201915b50505050508152602001600282018054610ada90611e67565b80601f0160208091040260200160405190810160405280929190818152602001828054610b0690611e67565b8015610b535780601f10610b2857610100808354040283529160200191610b53565b820191906000526020600020905b815481529060010190602001808311610b3657829003601f168201915b50505050508152602001600382018054610b6c90611e67565b80601f0160208091040260200160405190810160405280929190818152602001828054610b9890611e67565b8015610be55780601f10610bba57610100808354040283529160200191610be5565b820191906000526020600020905b815481529060010190602001808311610bc857829003601f168201915b5050505050815260200160048201548152602001600582015481526020016006820160009054906101000a900473ffffffffffffffffffffffffffffffffffffffff1673ffffffffffffffffffffffffffffffffffffffff1673ffffffffffffffffffffffffffffffffffffffff1681525050828281518110610c91577f4e487b7100000000000000000000000000000000000000000000000000000000600052603260045260246000fd5b60200260200101819052508080610ca790611eca565b9150506109fb565b5090565b6000835111610cf7576040517f08c379a0000000000000000000000000000000000000000000000000000000008152600401610cee90611aa9565b60405180910390fd5b6000825111610d3b576040517f08c379a0000000000000000000000000000000000000000000000000000000008152600401610d3290611a49565b60405180910390fd5b6000815111610d7f576040517f08c379a0000000000000000000000000000000000000000000000000000000008152600401610d7690611a49565b60405180910390fd5b600073ffffffffffffffffffffffffffffffffffffffff163373ffffffffffffffffffffffffffffffffffffffff161415610def576040517f08c379a0000000000000000000000000000000000000000000000000000000008152600401610de690611a69565b60405180910390fd5b60016000815480929190610e0290611eca565b91905055506040518060e00160405280600154815260200184815260200183815260200182815260200160008152602001600081526020013373ffffffffffffffffffffffffffffffffffffffff16815250600260006001548152602001908152602001600020600082015181600001556020820151816001019080519060200190610e8f92919061144d565b506040820151816002019080519060200190610eac92919061144d565b506060820151816003019080519060200190610ec992919061144d565b506080820151816004015560a0820151816005015560c08201518160060160006101000a81548173ffffffffffffffffffffffffffffffffffffffff021916908373ffffffffffffffffffffffffffffffffffffffff1602179055509050507f4f42357ee7b75fb57983e74a99615ff960e8965d9263ff34af5e6bbe8051148260015484848460008033604051610f669796959493929190611b24565b60405180910390a1505050565b600081118015610f8557506001548111155b610fc4576040517f08c379a0000000000000000000000000000000000000000000000000000000008152600401610fbb90611ae9565b60405180910390fd5b6002600082815260200190815260200160002060060160009054906101000a900473ffffffffffffffffffffffffffffffffffffffff1673ffffffffffffffffffffffffffffffffffffffff163373ffffffffffffffffffffffffffffffffffffffff161415611069576040517f08c379a000000000000000000000000000000000000000000000000000000000815260040161106090611ac9565b60405180910390fd5b6000600260008381526020019081526020016000206040518060e0016040529081600082015481526020016001820180546110a390611e67565b80601f01602080910402602001604051908101604052809291908181526020018280546110cf90611e67565b801561111c5780601f106110f15761010080835404028352916020019161111c565b820191906000526020600020905b8154815290600101906020018083116110ff57829003601f168201915b5050505050815260200160028201805461113590611e67565b80601f016020809104026020016040519081016040528092919081815260200182805461116190611e67565b80156111ae5780601f10611183576101008083540402835291602001916111ae565b820191906000526020600020905b81548152906001019060200180831161119157829003601f168201915b505050505081526020016003820180546111c790611e67565b80601f01602080910402602001604051908101604052809291908181526020018280546111f390611e67565b80156112405780601f1061121557610100808354040283529160200191611240565b820191906000526020600020905b81548152906001019060200180831161122357829003601f168201915b5050505050815260200160048201548152602001600582015481526020016006820160009054906101000a900473ffffffffffffffffffffffffffffffffffffffff1673ffffffffffffffffffffffffffffffffffffffff1673ffffffffffffffffffffffffffffffffffffffff1681525050905060008160c0015190508073ffffffffffffffffffffffffffffffffffffffff166108fc349081150290604051600060405180830381858888f19350505050158015611304573d6000803e3d6000fd5b503482608001516113159190611d81565b826080018181525050816002600085815260200190815260200160002060008201518160000155602082015181600101908051906020019061135892919061144d565b50604082015181600201908051906020019061137592919061144d565b50606082015181600301908051906020019061139292919061144d565b506080820151816004015560a0820151816005015560c08201518160060160006101000a81548173ffffffffffffffffffffffffffffffffffffffff021916908373ffffffffffffffffffffffffffffffffffffffff1602179055509050507f4cc6fc4d0f7a1c30341dd42d0b86597c13a3f0df5e035b8b2ad6fc1cb689272f8383602001518460400151856060015186608001518760a00151876040516114409796959493929190611ba8565b60405180910390a1505050565b82805461145990611e67565b90600052602060002090601f01602090048101928261147b57600085556114c2565b82601f1061149457805160ff19168380011785556114c2565b828001600101855582156114c2579182015b828111156114c15782518255916020019190600101906114a6565b5b5090506114cf9190611526565b5090565b6040518060e00160405280600081526020016060815260200160608152602001606081526020016000815260200160008152602001600073ffffffffffffffffffffffffffffffffffffffff1681525090565b5b8082111561153f576000816000905550600101611527565b5090565b600061155661155184611cd5565b611cb0565b90508281526020810184848401111561156e57600080fd5b611579848285611e25565b509392505050565b600082601f83011261159257600080fd5b81356115a2848260208601611543565b91505092915050565b6000813590506115ba816120f6565b92915050565b6000806000606084860312156115d557600080fd5b600084013567ffffffffffffffff8111156115ef57600080fd5b6115fb86828701611581565b935050602084013567ffffffffffffffff81111561161857600080fd5b61162486828701611581565b925050604084013567ffffffffffffffff81111561164157600080fd5b61164d86828701611581565b9150509250925092565b60006020828403121561166957600080fd5b6000611677848285016115ab565b91505092915050565b600061168c838361191d565b905092915050565b61169d81611dd7565b82525050565b6116ac81611dd7565b82525050565b60006116bd82611d2b565b6116c78185611d4e565b9350836020820285016116d985611d06565b8060005b8581101561171557848403895281516116f68582611680565b945061170183611d41565b925060208a019950506001810190506116dd565b50829750879550505050505092915050565b61173081611e13565b82525050565b600061174182611d36565b61174b8185611d5f565b935061175b818560208601611e34565b61176481611fa0565b840191505092915050565b600061177a82611d36565b6117848185611d70565b9350611794818560208601611e34565b61179d81611fa0565b840191505092915050565b600081546117b581611e67565b6117bf8186611d70565b945060018216600081146117da57600181146117ec5761181f565b60ff198316865260208601935061181f565b6117f585611d16565b60005b83811015611817578154818901526001820191506020810190506117f8565b808801955050505b50505092915050565b6000611835601b83611d70565b915061184082611fb1565b602082019050919050565b6000611858600f83611d70565b915061186382611fda565b602082019050919050565b600061187b602083611d70565b915061188682612003565b602082019050919050565b600061189e602383611d70565b91506118a98261202c565b604082019050919050565b60006118c1601a83611d70565b91506118cc8261207b565b602082019050919050565b60006118e4601c83611d70565b91506118ef826120a4565b602082019050919050565b6000611907601283611d70565b9150611912826120cd565b602082019050919050565b600060e08301600083015161193560008601826119c7565b506020830151848203602086015261194d8282611736565b915050604083015184820360408601526119678282611736565b915050606083015184820360608601526119818282611736565b915050608083015161199660808601826119c7565b5060a08301516119a960a08601826119c7565b5060c08301516119bc60c0860182611694565b508091505092915050565b6119d081611e09565b82525050565b6119df81611e09565b82525050565b600060208201905081810360008301526119ff81846116b2565b905092915050565b60006020820190508181036000830152611a21818461176f565b905092915050565b60006020820190508181036000830152611a4281611828565b9050919050565b60006020820190508181036000830152611a628161184b565b9050919050565b60006020820190508181036000830152611a828161186e565b9050919050565b60006020820190508181036000830152611aa281611891565b9050919050565b60006020820190508181036000830152611ac2816118b4565b9050919050565b60006020820190508181036000830152611ae2816118d7565b9050919050565b60006020820190508181036000830152611b02816118fa565b9050919050565b6000602082019050611b1e60008301846119d6565b92915050565b600060e082019050611b39600083018a6119d6565b8181036020830152611b4b818961176f565b90508181036040830152611b5f818861176f565b90508181036060830152611b73818761176f565b9050611b826080830186611727565b611b8f60a0830185611727565b611b9c60c08301846116a3565b98975050505050505050565b600060e082019050611bbd600083018a6119d6565b8181036020830152611bcf818961176f565b90508181036040830152611be3818861176f565b90508181036060830152611bf7818761176f565b9050611c0660808301866119d6565b611c1360a08301856119d6565b611c2060c08301846116a3565b98975050505050505050565b600060e082019050611c41600083018a6119d6565b8181036020830152611c5381896117a8565b90508181036040830152611c6781886117a8565b90508181036060830152611c7b81876117a8565b9050611c8a60808301866119d6565b611c9760a08301856119d6565b611ca460c08301846116a3565b98975050505050505050565b6000611cba611ccb565b9050611cc68282611e99565b919050565b6000604051905090565b600067ffffffffffffffff821115611cf057611cef611f71565b5b611cf982611fa0565b9050602081019050919050565b6000819050602082019050919050565b60008190508160005260206000209050919050565b600081519050919050565b600081519050919050565b6000602082019050919050565b600082825260208201905092915050565b600082825260208201905092915050565b600082825260208201905092915050565b6000611d8c82611e09565b9150611d9783611e09565b9250827fffffffffffffffffffffffffffffffffffffffffffffffffffffffffffffffff03821115611dcc57611dcb611f13565b5b828201905092915050565b6000611de282611de9565b9050919050565b600073ffffffffffffffffffffffffffffffffffffffff82169050919050565b6000819050919050565b6000611e1e82611e09565b9050919050565b82818337600083830152505050565b60005b83811015611e52578082015181840152602081019050611e37565b83811115611e61576000848401525b50505050565b60006002820490506001821680611e7f57607f821691505b60208210811415611e9357611e92611f42565b5b50919050565b611ea282611fa0565b810181811067ffffffffffffffff82111715611ec157611ec0611f71565b5b80604052505050565b6000611ed582611e09565b91507fffffffffffffffffffffffffffffffffffffffffffffffffffffffffffffffff821415611f0857611f07611f13565b5b600182019050919050565b7f4e487b7100000000000000000000000000000000000000000000000000000000600052601160045260246000fd5b7f4e487b7100000000000000000000000000000000000000000000000000000000600052602260045260246000fd5b7f4e487b7100000000000000000000000000000000000000000000000000000000600052604160045260246000fd5b6000601f19601f8301169050919050565b7f426f6f6b4d61726b2069642063616e6e6f7420626520656d7074790000000000600082015250565b7f63616e6e6f7420626520656d7074790000000000000000000000000000000000600082015250565b7f55706c6f6164657220616464726573732063616e6e6f7420626520656d707479600082015250565b7f596f75206172652074686520617574686f72206f66207468697320626f6f6b4d60008201527f61726b0000000000000000000000000000000000000000000000000000000000602082015250565b7f496d61676520686173682063616e6e6f7420626520656d707479000000000000600082015250565b7f596f752063616e6e6f742074697020796f7572206f776e20706f737400000000600082015250565b7f504f535420696420697320696e76616c69640000000000000000000000000000600082015250565b6120ff81611e09565b811461210a57600080fd5b5056fea2646970667358221220fbd683cdee9cb6b8c94936c511fba82a44784eea1dcd27b5fb8789f3cad9a49564736f6c63430008020033",
  "linkReferences": {},
  "deployedLinkReferences": {}
}