{
  "_format": "hh-sol-artifact-1",
  "contractName": "BookMark",
  "sourceName": "contracts/BookMark.sol",
  "abi": [
    {
      "inputs": [],
      "stateMutability": "nonpayable",
      "type": "constructor"
    },
    {
      "anonymous": false,
      "inputs": [
        {
          "indexed": false,
          "internalType": "uint256",
          "name": "id",
          "type": "uint256"
        },
        {
          "indexed": false,
          "internalType": "string",
          "name": "hash",
          "type": "string"
        },
        {
          "indexed": false,
          "internalType": "string",
          "name": "description",
          "type": "string"
        },
        {
          "indexed": false,
          "internalType": "uint256",
          "name": "tipAmount",
          "type": "uint256"
        },
        {
          "indexed": false,
          "internalType": "address payable",
          "name": "author",
          "type": "address"
        }
      ],
      "name": "PostCreated",
      "type": "event"
    },
    {
      "anonymous": false,
      "inputs": [
        {
          "indexed": false,
          "internalType": "uint256",
          "name": "id",
          "type": "uint256"
        },
        {
          "indexed": false,
          "internalType": "string",
          "name": "hash",
          "type": "string"
        },
        {
          "indexed": false,
          "internalType": "string",
          "name": "description",
          "type": "string"
        },
        {
          "indexed": false,
          "internalType": "uint256",
          "name": "tipAmount",
          "type": "uint256"
        },
        {
          "indexed": false,
          "internalType": "address payable",
          "name": "author",
          "type": "address"
        }
      ],
      "name": "PostTipped",
      "type": "event"
    },
    {
      "inputs": [],
      "name": "getAllPosts",
      "outputs": [
        {
          "components": [
            {
              "internalType": "uint256",
              "name": "id",
              "type": "uint256"
            },
            {
              "internalType": "string",
              "name": "hash",
              "type": "string"
            },
            {
              "internalType": "string",
              "name": "description",
              "type": "string"
            },
            {
              "internalType": "uint256",
              "name": "tipAmount",
              "type": "uint256"
            },
            {
              "internalType": "address payable",
              "name": "author",
              "type": "address"
            }
          ],
          "internalType": "struct BookMark.Post[]",
          "name": "_posts",
          "type": "tuple[]"
        }
      ],
      "stateMutability": "view",
      "type": "function"
    },
    {
      "inputs": [],
      "name": "name",
      "outputs": [
        {
          "internalType": "string",
          "name": "",
          "type": "string"
        }
      ],
      "stateMutability": "view",
      "type": "function"
    },
    {
      "inputs": [],
      "name": "postCount",
      "outputs": [
        {
          "internalType": "uint256",
          "name": "",
          "type": "uint256"
        }
      ],
      "stateMutability": "view",
      "type": "function"
    },
    {
      "inputs": [
        {
          "internalType": "uint256",
          "name": "",
          "type": "uint256"
        }
      ],
      "name": "posts",
      "outputs": [
        {
          "internalType": "uint256",
          "name": "id",
          "type": "uint256"
        },
        {
          "internalType": "string",
          "name": "hash",
          "type": "string"
        },
        {
          "internalType": "string",
          "name": "description",
          "type": "string"
        },
        {
          "internalType": "uint256",
          "name": "tipAmount",
          "type": "uint256"
        },
        {
          "internalType": "address payable",
          "name": "author",
          "type": "address"
        }
      ],
      "stateMutability": "view",
      "type": "function"
    },
    {
      "inputs": [
        {
          "internalType": "uint256",
          "name": "_id",
          "type": "uint256"
        }
      ],
      "name": "tipImageOwner",
      "outputs": [],
      "stateMutability": "payable",
      "type": "function"
    },
    {
      "inputs": [
        {
          "internalType": "string",
          "name": "_bookMarkHash",
          "type": "string"
        },
        {
          "internalType": "string",
          "name": "_description",
          "type": "string"
        }
      ],
      "name": "uploadPost",
      "outputs": [],
      "stateMutability": "nonpayable",
      "type": "function"
    }
  ],
  "bytecode": "0x608060405260006001553480156200001657600080fd5b506040518060400160405280600881526020017f426f6f6b4d61726b00000000000000000000000000000000000000000000000081525060009080519060200190620000649291906200006b565b5062000180565b82805462000079906200011b565b90600052602060002090601f0160209004810192826200009d5760008555620000e9565b82601f10620000b857805160ff1916838001178555620000e9565b82800160010185558215620000e9579182015b82811115620000e8578251825591602001919060010190620000cb565b5b509050620000f89190620000fc565b5090565b5b8082111562000117576000816000905550600101620000fd565b5090565b600060028204905060018216806200013457607f821691505b602082108114156200014b576200014a62000151565b5b50919050565b7f4e487b7100000000000000000000000000000000000000000000000000000000600052602260045260246000fd5b61156a80620001906000396000f3fe6080604052600436106100555760003560e01c806306fdde031461005a5780630b1e7f83146100855780630cb1c7ee146100c657806317906c2e146100ef578063305611001461011a5780638567ade814610145575b600080fd5b34801561006657600080fd5b5061006f610161565b60405161007c919061100e565b60405180910390f35b34801561009157600080fd5b506100ac60048036038101906100a79190610d74565b6101ef565b6040516100bd95949392919061112c565b60405180910390f35b3480156100d257600080fd5b506100ed60048036038101906100e89190610d08565b610355565b005b3480156100fb57600080fd5b50610104610598565b60405161011191906110b0565b60405180910390f35b34801561012657600080fd5b5061012f61059e565b60405161013c9190610fec565b60405180910390f35b61015f600480360381019061015a9190610d74565b61083d565b005b6000805461016e9061132f565b80601f016020809104026020016040519081016040528092919081815260200182805461019a9061132f565b80156101e75780601f106101bc576101008083540402835291602001916101e7565b820191906000526020600020905b8154815290600101906020018083116101ca57829003601f168201915b505050505081565b60026020528060005260406000206000915090508060000154908060010180546102189061132f565b80601f01602080910402602001604051908101604052809291908181526020018280546102449061132f565b80156102915780601f1061026657610100808354040283529160200191610291565b820191906000526020600020905b81548152906001019060200180831161027457829003601f168201915b5050505050908060020180546102a69061132f565b80601f01602080910402602001604051908101604052809291908181526020018280546102d29061132f565b801561031f5780601f106102f45761010080835404028352916020019161031f565b820191906000526020600020905b81548152906001019060200180831161030257829003601f168201915b5050505050908060030154908060040160009054906101000a900473ffffffffffffffffffffffffffffffffffffffff16905085565b6000825111610399576040517f08c379a000000000000000000000000000000000000000000000000000000000815260040161039090611070565b60405180910390fd5b60008151116103dd576040517f08c379a00000000000000000000000000000000000000000000000000000000081526004016103d490611030565b60405180910390fd5b600073ffffffffffffffffffffffffffffffffffffffff163373ffffffffffffffffffffffffffffffffffffffff16141561044d576040517f08c379a000000000000000000000000000000000000000000000000000000000815260040161044490611050565b60405180910390fd5b6001600081548092919061046090611392565b91905055506040518060a001604052806001548152602001838152602001828152602001600081526020013373ffffffffffffffffffffffffffffffffffffffff168152506002600060015481526020019081526020016000206000820151816000015560208201518160010190805190602001906104e0929190610ba3565b5060408201518160020190805190602001906104fd929190610ba3565b506060820151816003015560808201518160040160006101000a81548173ffffffffffffffffffffffffffffffffffffffff021916908373ffffffffffffffffffffffffffffffffffffffff1602179055509050507f0e2769bd597cd7048e25b64a846e1254d4cb84b13c4aba4ad4a891baf7a399c6600154838360003360405161058c9594939291906110cb565b60405180910390a15050565b60015481565b606060015467ffffffffffffffff8111156105e2577f4e487b7100000000000000000000000000000000000000000000000000000000600052604160045260246000fd5b60405190808252806020026020018201604052801561061b57816020015b610608610c29565b8152602001906001900390816106005790505b50905060005b8151811015610839576002600060018361063b9190611249565b81526020019081526020016000206040518060a00160405290816000820154815260200160018201805461066e9061132f565b80601f016020809104026020016040519081016040528092919081815260200182805461069a9061132f565b80156106e75780601f106106bc576101008083540402835291602001916106e7565b820191906000526020600020905b8154815290600101906020018083116106ca57829003601f168201915b505050505081526020016002820180546107009061132f565b80601f016020809104026020016040519081016040528092919081815260200182805461072c9061132f565b80156107795780601f1061074e57610100808354040283529160200191610779565b820191906000526020600020905b81548152906001019060200180831161075c57829003601f168201915b50505050508152602001600382015481526020016004820160009054906101000a900473ffffffffffffffffffffffffffffffffffffffff1673ffffffffffffffffffffffffffffffffffffffff1673ffffffffffffffffffffffffffffffffffffffff168152505082828151811061081b577f4e487b7100000000000000000000000000000000000000000000000000000000600052603260045260246000fd5b6020026020010181905250808061083190611392565b915050610621565b5090565b60008111801561084f57506001548111155b61088e576040517f08c379a000000000000000000000000000000000000000000000000000000000815260040161088590611090565b60405180910390fd5b6000600260008381526020019081526020016000206040518060a0016040529081600082015481526020016001820180546108c89061132f565b80601f01602080910402602001604051908101604052809291908181526020018280546108f49061132f565b80156109415780601f1061091657610100808354040283529160200191610941565b820191906000526020600020905b81548152906001019060200180831161092457829003601f168201915b5050505050815260200160028201805461095a9061132f565b80601f01602080910402602001604051908101604052809291908181526020018280546109869061132f565b80156109d35780601f106109a8576101008083540402835291602001916109d3565b820191906000526020600020905b8154815290600101906020018083116109b657829003601f168201915b50505050508152602001600382015481526020016004820160009054906101000a900473ffffffffffffffffffffffffffffffffffffffff1673ffffffffffffffffffffffffffffffffffffffff1673ffffffffffffffffffffffffffffffffffffffff168152505090506000816080015190508073ffffffffffffffffffffffffffffffffffffffff166108fc349081150290604051600060405180830381858888f19350505050158015610a8d573d6000803e3d6000fd5b50348260600151610a9e9190611249565b8260600181815250508160026000858152602001908152602001600020600082015181600001556020820151816001019080519060200190610ae1929190610ba3565b506040820151816002019080519060200190610afe929190610ba3565b506060820151816003015560808201518160040160006101000a81548173ffffffffffffffffffffffffffffffffffffffff021916908373ffffffffffffffffffffffffffffffffffffffff1602179055509050507f8cdd31fc6bd9c789638fdbd3ed5c788b27fa5d287f300e92f3c436ba03527db38383602001518460400151856060015185604051610b9695949392919061112c565b60405180910390a1505050565b828054610baf9061132f565b90600052602060002090601f016020900481019282610bd15760008555610c18565b82601f10610bea57805160ff1916838001178555610c18565b82800160010185558215610c18579182015b82811115610c17578251825591602001919060010190610bfc565b5b509050610c259190610c6e565b5090565b6040518060a0016040528060008152602001606081526020016060815260200160008152602001600073ffffffffffffffffffffffffffffffffffffffff1681525090565b5b80821115610c87576000816000905550600101610c6f565b5090565b6000610c9e610c99846111b2565b61118d565b905082815260208101848484011115610cb657600080fd5b610cc18482856112ed565b509392505050565b600082601f830112610cda57600080fd5b8135610cea848260208601610c8b565b91505092915050565b600081359050610d028161151d565b92915050565b60008060408385031215610d1b57600080fd5b600083013567ffffffffffffffff811115610d3557600080fd5b610d4185828601610cc9565b925050602083013567ffffffffffffffff811115610d5e57600080fd5b610d6a85828601610cc9565b9150509250929050565b600060208284031215610d8657600080fd5b6000610d9484828501610cf3565b91505092915050565b6000610da98383610f51565b905092915050565b610dba8161129f565b82525050565b610dc98161129f565b82525050565b6000610dda826111f3565b610de48185611216565b935083602082028501610df6856111e3565b8060005b85811015610e325784840389528151610e138582610d9d565b9450610e1e83611209565b925060208a01995050600181019050610dfa565b50829750879550505050505092915050565b610e4d816112db565b82525050565b6000610e5e826111fe565b610e688185611227565b9350610e788185602086016112fc565b610e8181611468565b840191505092915050565b6000610e97826111fe565b610ea18185611238565b9350610eb18185602086016112fc565b610eba81611468565b840191505092915050565b6000610ed2600f83611238565b9150610edd82611479565b602082019050919050565b6000610ef5602083611238565b9150610f00826114a2565b602082019050919050565b6000610f18601a83611238565b9150610f23826114cb565b602082019050919050565b6000610f3b601283611238565b9150610f46826114f4565b602082019050919050565b600060a083016000830151610f696000860182610fce565b5060208301518482036020860152610f818282610e53565b91505060408301518482036040860152610f9b8282610e53565b9150506060830151610fb06060860182610fce565b506080830151610fc36080860182610db1565b508091505092915050565b610fd7816112d1565b82525050565b610fe6816112d1565b82525050565b600060208201905081810360008301526110068184610dcf565b905092915050565b600060208201905081810360008301526110288184610e8c565b905092915050565b6000602082019050818103600083015261104981610ec5565b9050919050565b6000602082019050818103600083015261106981610ee8565b9050919050565b6000602082019050818103600083015261108981610f0b565b9050919050565b600060208201905081810360008301526110a981610f2e565b9050919050565b60006020820190506110c56000830184610fdd565b92915050565b600060a0820190506110e06000830188610fdd565b81810360208301526110f28187610e8c565b905081810360408301526111068186610e8c565b90506111156060830185610e44565b6111226080830184610dc0565b9695505050505050565b600060a0820190506111416000830188610fdd565b81810360208301526111538187610e8c565b905081810360408301526111678186610e8c565b90506111766060830185610fdd565b6111836080830184610dc0565b9695505050505050565b60006111976111a8565b90506111a38282611361565b919050565b6000604051905090565b600067ffffffffffffffff8211156111cd576111cc611439565b5b6111d682611468565b9050602081019050919050565b6000819050602082019050919050565b600081519050919050565b600081519050919050565b6000602082019050919050565b600082825260208201905092915050565b600082825260208201905092915050565b600082825260208201905092915050565b6000611254826112d1565b915061125f836112d1565b9250827fffffffffffffffffffffffffffffffffffffffffffffffffffffffffffffffff03821115611294576112936113db565b5b828201905092915050565b60006112aa826112b1565b9050919050565b600073ffffffffffffffffffffffffffffffffffffffff82169050919050565b6000819050919050565b60006112e6826112d1565b9050919050565b82818337600083830152505050565b60005b8381101561131a5780820151818401526020810190506112ff565b83811115611329576000848401525b50505050565b6000600282049050600182168061134757607f821691505b6020821081141561135b5761135a61140a565b5b50919050565b61136a82611468565b810181811067ffffffffffffffff8211171561138957611388611439565b5b80604052505050565b600061139d826112d1565b91507fffffffffffffffffffffffffffffffffffffffffffffffffffffffffffffffff8214156113d0576113cf6113db565b5b600182019050919050565b7f4e487b7100000000000000000000000000000000000000000000000000000000600052601160045260246000fd5b7f4e487b7100000000000000000000000000000000000000000000000000000000600052602260045260246000fd5b7f4e487b7100000000000000000000000000000000000000000000000000000000600052604160045260246000fd5b6000601f19601f8301169050919050565b7f63616e6e6f7420626520656d7074790000000000000000000000000000000000600082015250565b7f55706c6f6164657220616464726573732063616e6e6f7420626520656d707479600082015250565b7f496d61676520686173682063616e6e6f7420626520656d707479000000000000600082015250565b7f504f535420696420697320696e76616c69640000000000000000000000000000600082015250565b611526816112d1565b811461153157600080fd5b5056fea26469706673582212204f29c54af7ac2ba82dcc6fa2848a28cd5031c8fcc35a72b71e7979cfd199e32864736f6c63430008020033",
  "linkReferences": {},
  "deployedLinkReferences": {}
}